{
  "_format": "hh-sol-artifact-1",
  "contractName": "APPoolManager",
  "sourceName": "contracts/Pool/APPoolManager.sol",
  "abi": [
    {
      "inputs": [
        {
          "internalType": "address",
          "name": "_initialOwner",
          "type": "address"
        },
        {
          "internalType": "address",
          "name": "_signer",
          "type": "address"
        },
        {
          "internalType": "address",
          "name": "poolAddress",
          "type": "address"
        }
      ],
      "stateMutability": "nonpayable",
      "type": "constructor"
    },
    {
      "inputs": [],
      "name": "ERC1167FailedCreateClone",
      "type": "error"
    },
    {
      "inputs": [
        {
          "internalType": "address",
          "name": "owner",
          "type": "address"
        }
      ],
      "name": "OwnableInvalidOwner",
      "type": "error"
    },
    {
      "inputs": [
        {
          "internalType": "address",
          "name": "account",
          "type": "address"
        }
      ],
      "name": "OwnableUnauthorizedAccount",
      "type": "error"
    },
    {
      "inputs": [],
      "name": "ReentrancyGuardReentrantCall",
      "type": "error"
    },
    {
      "anonymous": false,
      "inputs": [
        {
          "indexed": true,
          "internalType": "address",
          "name": "previousOwner",
          "type": "address"
        },
        {
          "indexed": true,
          "internalType": "address",
          "name": "newOwner",
          "type": "address"
        }
      ],
      "name": "OwnershipTransferStarted",
      "type": "event"
    },
    {
      "anonymous": false,
      "inputs": [
        {
          "indexed": true,
          "internalType": "address",
          "name": "previousOwner",
          "type": "address"
        },
        {
          "indexed": true,
          "internalType": "address",
          "name": "newOwner",
          "type": "address"
        }
      ],
      "name": "OwnershipTransferred",
      "type": "event"
    },
    {
      "anonymous": false,
      "inputs": [
        {
          "indexed": false,
          "internalType": "address",
          "name": "presaleAddress",
          "type": "address"
        },
        {
          "indexed": false,
          "internalType": "address",
          "name": "currency",
          "type": "address"
        },
        {
          "indexed": false,
          "internalType": "uint256",
          "name": "amount",
          "type": "uint256"
        },
        {
          "indexed": false,
          "internalType": "uint256",
          "name": "startTime",
          "type": "uint256"
        },
        {
          "indexed": false,
          "internalType": "uint256",
          "name": "endTime",
          "type": "uint256"
        }
      ],
      "name": "PresaleCreated",
      "type": "event"
    },
    {
      "inputs": [],
      "name": "acceptOwnership",
      "outputs": [],
      "stateMutability": "nonpayable",
      "type": "function"
    },
    {
      "inputs": [
        {
          "internalType": "address",
          "name": "newSigner",
          "type": "address"
        }
      ],
      "name": "changeSigner",
      "outputs": [
        {
          "internalType": "bool",
          "name": "",
          "type": "bool"
        }
      ],
      "stateMutability": "nonpayable",
      "type": "function"
    },
    {
      "inputs": [
        {
          "components": [
            {
              "internalType": "address",
              "name": "currency",
              "type": "address"
            },
            {
              "internalType": "uint256",
              "name": "presaleRate",
              "type": "uint256"
            },
            {
              "internalType": "uint256",
              "name": "softcap",
              "type": "uint256"
            },
            {
              "internalType": "uint256",
              "name": "hardcap",
              "type": "uint256"
            },
            {
              "internalType": "uint256",
              "name": "minBuy",
              "type": "uint256"
            },
            {
              "internalType": "uint256",
              "name": "maxBuy",
              "type": "uint256"
            },
            {
              "internalType": "uint256",
              "name": "liquidityRate",
              "type": "uint256"
            },
            {
              "internalType": "uint256",
              "name": "listingRate",
              "type": "uint256"
            },
            {
              "internalType": "uint256",
              "name": "startTime",
              "type": "uint256"
            },
            {
              "internalType": "uint256",
              "name": "endTime",
              "type": "uint256"
            },
            {
              "internalType": "uint256",
              "name": "lockEndTime",
              "type": "uint256"
            },
            {
              "internalType": "bool",
              "name": "isVesting",
              "type": "bool"
            },
            {
              "internalType": "bool",
              "name": "isLock",
              "type": "bool"
            },
            {
              "internalType": "bool",
              "name": "refund",
              "type": "bool"
            },
            {
              "internalType": "bool",
              "name": "autoListing",
              "type": "bool"
            }
          ],
          "internalType": "struct Presale",
          "name": "newPresale",
          "type": "tuple"
        },
        {
          "components": [
            {
              "internalType": "uint256",
              "name": "tge",
              "type": "uint256"
            },
            {
              "internalType": "uint256",
              "name": "cliff",
              "type": "uint256"
            },
            {
              "internalType": "uint256",
              "name": "release",
              "type": "uint256"
            },
            {
              "internalType": "uint256",
              "name": "startTime",
              "type": "uint256"
            }
          ],
          "internalType": "struct Vesting",
          "name": "vesting",
          "type": "tuple"
        }
      ],
      "name": "createPresale",
      "outputs": [
        {
          "internalType": "address",
          "name": "",
          "type": "address"
        }
      ],
      "stateMutability": "nonpayable",
      "type": "function"
    },
    {
      "inputs": [],
      "name": "getAllPresales",
      "outputs": [
        {
          "internalType": "address[]",
          "name": "poolAddress",
          "type": "address[]"
        }
      ],
      "stateMutability": "view",
      "type": "function"
    },
    {
      "inputs": [
        {
          "internalType": "address",
          "name": "poolOwner",
          "type": "address"
        },
        {
          "internalType": "address",
          "name": "currency",
          "type": "address"
        }
      ],
      "name": "getPoolAddress",
      "outputs": [
        {
          "internalType": "address",
          "name": "poolAddress",
          "type": "address"
        }
      ],
      "stateMutability": "view",
      "type": "function"
    },
    {
      "inputs": [
        {
          "internalType": "contract IPool",
          "name": "poolAddress",
          "type": "address"
        }
      ],
      "name": "getPresalesData",
      "outputs": [
        {
          "components": [
            {
              "internalType": "address",
              "name": "currency",
              "type": "address"
            },
            {
              "internalType": "uint256",
              "name": "presaleRate",
              "type": "uint256"
            },
            {
              "internalType": "uint256",
              "name": "softcap",
              "type": "uint256"
            },
            {
              "internalType": "uint256",
              "name": "hardcap",
              "type": "uint256"
            },
            {
              "internalType": "uint256",
              "name": "minBuy",
              "type": "uint256"
            },
            {
              "internalType": "uint256",
              "name": "maxBuy",
              "type": "uint256"
            },
            {
              "internalType": "uint256",
              "name": "liquidityRate",
              "type": "uint256"
            },
            {
              "internalType": "uint256",
              "name": "listingRate",
              "type": "uint256"
            },
            {
              "internalType": "uint256",
              "name": "startTime",
              "type": "uint256"
            },
            {
              "internalType": "uint256",
              "name": "endTime",
              "type": "uint256"
            },
            {
              "internalType": "uint256",
              "name": "lockEndTime",
              "type": "uint256"
            },
            {
              "internalType": "bool",
              "name": "isVesting",
              "type": "bool"
            },
            {
              "internalType": "bool",
              "name": "isLock",
              "type": "bool"
            },
            {
              "internalType": "bool",
              "name": "refund",
              "type": "bool"
            },
            {
              "internalType": "bool",
              "name": "autoListing",
              "type": "bool"
            }
          ],
          "internalType": "struct Presale",
          "name": "presaleDatas",
          "type": "tuple"
        },
        {
          "components": [
            {
              "internalType": "uint256",
              "name": "tge",
              "type": "uint256"
            },
            {
              "internalType": "uint256",
              "name": "cliff",
              "type": "uint256"
            },
            {
              "internalType": "uint256",
              "name": "release",
              "type": "uint256"
            },
            {
              "internalType": "uint256",
              "name": "startTime",
              "type": "uint256"
            }
          ],
          "internalType": "struct Vesting",
          "name": "vestingDatas",
          "type": "tuple"
        }
      ],
      "stateMutability": "view",
      "type": "function"
    },
    {
      "inputs": [],
      "name": "owner",
      "outputs": [
        {
          "internalType": "address",
          "name": "",
          "type": "address"
        }
      ],
      "stateMutability": "view",
      "type": "function"
    },
    {
      "inputs": [],
      "name": "pendingOwner",
      "outputs": [
        {
          "internalType": "address",
          "name": "",
          "type": "address"
        }
      ],
      "stateMutability": "view",
      "type": "function"
    },
    {
      "inputs": [
        {
          "internalType": "uint256",
          "name": "index",
          "type": "uint256"
        }
      ],
      "name": "presales",
      "outputs": [
        {
          "internalType": "address",
          "name": "poolAddress",
          "type": "address"
        }
      ],
      "stateMutability": "view",
      "type": "function"
    },
    {
      "inputs": [
        {
          "components": [
            {
              "internalType": "address",
              "name": "currency",
              "type": "address"
            },
            {
              "internalType": "uint256",
              "name": "presaleRate",
              "type": "uint256"
            },
            {
              "internalType": "uint256",
              "name": "softcap",
              "type": "uint256"
            },
            {
              "internalType": "uint256",
              "name": "hardcap",
              "type": "uint256"
            },
            {
              "internalType": "uint256",
              "name": "minBuy",
              "type": "uint256"
            },
            {
              "internalType": "uint256",
              "name": "maxBuy",
              "type": "uint256"
            },
            {
              "internalType": "uint256",
              "name": "liquidityRate",
              "type": "uint256"
            },
            {
              "internalType": "uint256",
              "name": "listingRate",
              "type": "uint256"
            },
            {
              "internalType": "uint256",
              "name": "startTime",
              "type": "uint256"
            },
            {
              "internalType": "uint256",
              "name": "endTime",
              "type": "uint256"
            },
            {
              "internalType": "uint256",
              "name": "lockEndTime",
              "type": "uint256"
            },
            {
              "internalType": "bool",
              "name": "isVesting",
              "type": "bool"
            },
            {
              "internalType": "bool",
              "name": "isLock",
              "type": "bool"
            },
            {
              "internalType": "bool",
              "name": "refund",
              "type": "bool"
            },
            {
              "internalType": "bool",
              "name": "autoListing",
              "type": "bool"
            }
          ],
          "internalType": "struct Presale",
          "name": "presale",
          "type": "tuple"
        },
        {
          "internalType": "bytes",
          "name": "signature",
          "type": "bytes"
        }
      ],
      "name": "recover",
      "outputs": [
        {
          "internalType": "bool",
          "name": "",
          "type": "bool"
        }
      ],
      "stateMutability": "view",
      "type": "function"
    },
    {
      "inputs": [],
      "name": "renounceOwnership",
      "outputs": [],
      "stateMutability": "nonpayable",
      "type": "function"
    },
    {
      "inputs": [
        {
          "internalType": "bytes",
          "name": "signature",
          "type": "bytes"
        }
      ],
      "name": "split",
      "outputs": [
        {
          "internalType": "uint8",
          "name": "",
          "type": "uint8"
        },
        {
          "internalType": "bytes32",
          "name": "",
          "type": "bytes32"
        },
        {
          "internalType": "bytes32",
          "name": "",
          "type": "bytes32"
        }
      ],
      "stateMutability": "pure",
      "type": "function"
    },
    {
      "inputs": [
        {
          "internalType": "address",
          "name": "newOwner",
          "type": "address"
        }
      ],
      "name": "transferOwnership",
      "outputs": [],
      "stateMutability": "nonpayable",
      "type": "function"
    },
    {
      "inputs": [],
      "name": "withdrawAll",
      "outputs": [],
      "stateMutability": "nonpayable",
      "type": "function"
    }
  ],
  "bytecode": "0x60a06040523480156200001157600080fd5b50604051620027b5380380620027b58339818101604052810190620000379190620003c5565b8183600073ffffffffffffffffffffffffffffffffffffffff168173ffffffffffffffffffffffffffffffffffffffff1603620000ae5760006040517f1e4fbdf7000000000000000000000000000000000000000000000000000000008152600401620000a5919062000432565b60405180910390fd5b620000bf816200025e60201b60201c565b50600073ffffffffffffffffffffffffffffffffffffffff168173ffffffffffffffffffffffffffffffffffffffff1603620000fa57600080fd5b80600260006101000a81548173ffffffffffffffffffffffffffffffffffffffff021916908373ffffffffffffffffffffffffffffffffffffffff1602179055507f8b73c3c69bb8fe3d512ecc4cf759cc79239f7b179b0ffacaa9a75d522b39400f6040518060400160405280600d81526020017f4549503731322d44657269766500000000000000000000000000000000000000815250805190602001206040518060400160405280600181526020017f3100000000000000000000000000000000000000000000000000000000000000815250805190602001204630604051602001620001ee95949392919062000485565b604051602081830303815290604052805190602001206080818152505050600160038190555080600460006101000a81548173ffffffffffffffffffffffffffffffffffffffff021916908373ffffffffffffffffffffffffffffffffffffffff160217905550505050620004e2565b600160006101000a81549073ffffffffffffffffffffffffffffffffffffffff021916905562000294816200029760201b60201c565b50565b60008060009054906101000a900473ffffffffffffffffffffffffffffffffffffffff169050816000806101000a81548173ffffffffffffffffffffffffffffffffffffffff021916908373ffffffffffffffffffffffffffffffffffffffff1602179055508173ffffffffffffffffffffffffffffffffffffffff168173ffffffffffffffffffffffffffffffffffffffff167f8be0079c531659141344cd1fd0a4f28419497f9722a3daafe3b4186f6b6457e060405160405180910390a35050565b600080fd5b600073ffffffffffffffffffffffffffffffffffffffff82169050919050565b60006200038d8262000360565b9050919050565b6200039f8162000380565b8114620003ab57600080fd5b50565b600081519050620003bf8162000394565b92915050565b600080600060608486031215620003e157620003e06200035b565b5b6000620003f186828701620003ae565b93505060206200040486828701620003ae565b92505060406200041786828701620003ae565b9150509250925092565b6200042c8162000380565b82525050565b600060208201905062000449600083018462000421565b92915050565b6000819050919050565b62000464816200044f565b82525050565b6000819050919050565b6200047f816200046a565b82525050565b600060a0820190506200049c600083018862000459565b620004ab602083018762000459565b620004ba604083018662000459565b620004c9606083018562000474565b620004d8608083018462000421565b9695505050505050565b6080516122b7620004fe600039600061044501526122b76000f3fe608060405234801561001057600080fd5b50600436106100ea5760003560e01c8063853828b61161008c578063d38d4dd411610066578063d38d4dd41461024e578063e30c39781461027e578063ea9160dd1461029c578063f2fde38b146102ba576100ea565b8063853828b6146101f65780638da5cb5b14610200578063aad2b7231461021e576100ea565b80637065c02b116100c85780637065c02b14610182578063715018a6146101b257806379ba5097146101bc5780637dbfb36d146101c6576100ea565b80632f50fcd2146100ef5780633fa1e0c81461012057806365d894e914610150575b600080fd5b6101096004803603810190610104919061117c565b6102d6565b604051610117929190611376565b60405180910390f35b61013a600480360381019061013591906113cd565b61035f565b604051610147919061141c565b60405180910390f35b61016a6004803603810190610165919061157d565b6103c2565b604051610179939291906115fb565b60405180910390f35b61019c600480360381019061019791906117f3565b610440565b6040516101a99190611860565b60405180910390f35b6101ba6105a4565b005b6101c46105b8565b005b6101e060048036038101906101db919061187b565b610647565b6040516101ed919061141c565b60405180910390f35b6101fe61068c565b005b6102086106f0565b604051610215919061141c565b60405180910390f35b610238600480360381019061023391906118a8565b610719565b6040516102459190611860565b60405180910390f35b6102686004803603810190610263919061194d565b6107dc565b604051610275919061141c565b60405180910390f35b610286610b27565b604051610293919061141c565b60405180910390f35b6102a4610b51565b6040516102b19190611a3e565b60405180910390f35b6102d460048036038101906102cf91906118a8565b610c3f565b005b6102de61103c565b6102e66110d0565b8273ffffffffffffffffffffffffffffffffffffffff1663fb29238b6040518163ffffffff1660e01b815260040161026060405180830381865afa158015610332573d6000803e3d6000fd5b505050506040513d601f19601f820116820180604052508101906103569190611c7b565b91509150915091565b6000808383604051602001610375929190611d05565b6040516020818303038152906040528051906020012090506103b9600460009054906101000a900473ffffffffffffffffffffffffffffffffffffffff1682610cec565b91505092915050565b600080600060418451036103fe5760008060006020870151925060408701519150606087015160001a9050808383955095509550505050610439565b6040517f08c379a000000000000000000000000000000000000000000000000000000000815260040161043090611d8e565b60405180910390fd5b9193909250565b6000807f00000000000000000000000000000000000000000000000000000000000000007fe3aca7fab33e0dccb49669fa7f9baddb2a5592f009b2eab552bacb4dc72594e660001b8560405160200161049a929190611dae565b604051602081830303815290604052805190602001206040516020016104c1929190611e50565b60405160208183030381529060405280519060200120905060008060006104e7866103c2565b9250925092506000600185858585604051600081526020016040526040516105129493929190611e87565b6020604051602081039080840390855afa158015610534573d6000803e3d6000fd5b5050506020604051035190506000600260009054906101000a900473ffffffffffffffffffffffffffffffffffffffff1673ffffffffffffffffffffffffffffffffffffffff168273ffffffffffffffffffffffffffffffffffffffff1614905080965050505050505092915050565b6105ac610d01565b6105b66000610d88565b565b60006105c2610db9565b90508073ffffffffffffffffffffffffffffffffffffffff166105e3610b27565b73ffffffffffffffffffffffffffffffffffffffff161461063b57806040517f118cdaa7000000000000000000000000000000000000000000000000000000008152600401610632919061141c565b60405180910390fd5b61064481610d88565b50565b6000610651610d01565b6006600083815260200190815260200160002060009054906101000a900473ffffffffffffffffffffffffffffffffffffffff169050919050565b610694610d01565b6000479050600081116106dc576040517f08c379a00000000000000000000000000000000000000000000000000000000081526004016106d390611ef2565b60405180910390fd5b6106ed6106e76106f0565b82610dc1565b50565b60008060009054906101000a900473ffffffffffffffffffffffffffffffffffffffff16905090565b6000610723610d01565b600073ffffffffffffffffffffffffffffffffffffffff168273ffffffffffffffffffffffffffffffffffffffff1603610792576040517f08c379a000000000000000000000000000000000000000000000000000000000815260040161078990611f84565b60405180910390fd5b81600260006101000a81548173ffffffffffffffffffffffffffffffffffffffff021916908373ffffffffffffffffffffffffffffffffffffffff16021790555060019050919050565b60006107e6610e14565b4283610100015110156107f857600080fd5b6000338460000151604051602001610811929190611d05565b6040516020818303038152906040528051906020012090506000610857600460009054906101000a900473ffffffffffffffffffffffffffffffffffffffff1683610e5a565b90508060066000600554815260200190815260200160002060006101000a81548173ffffffffffffffffffffffffffffffffffffffff021916908373ffffffffffffffffffffffffffffffffffffffff160217905550600081905060008173ffffffffffffffffffffffffffffffffffffffff1663c4d66de8336040518263ffffffff1660e01b81526004016108ed919061141c565b6020604051808303816000875af115801561090c573d6000803e3d6000fd5b505050506040513d601f19601f820116820180604052508101906109309190611fa4565b905080610972576040517f08c379a00000000000000000000000000000000000000000000000000000000081526004016109699061201d565b60405180910390fd5b600560008154809291906109859061206c565b919050555060008273ffffffffffffffffffffffffffffffffffffffff1663420fdff5896040518263ffffffff1660e01b81526004016109c591906120b4565b6020604051808303816000875af11580156109e4573d6000803e3d6000fd5b505050506040513d601f19601f82011682018060405250810190610a0891906120d0565b905060008111610a4d576040517f08c379a0000000000000000000000000000000000000000000000000000000008152600401610a4490612149565b60405180910390fd5b87610160015115610ac4578273ffffffffffffffffffffffffffffffffffffffff16631f8b7a36886040518263ffffffff1660e01b8152600401610a919190612169565b600060405180830381600087803b158015610aab57600080fd5b505af1158015610abf573d6000803e3d6000fd5b505050505b7f6cc87a9e7d48481cdc79057e84215b4caef455f86fbc6c3be07ca69ea58b92f1848960000151838b61010001518c6101200151604051610b09959493929190612193565b60405180910390a18395505050505050610b21610f0d565b92915050565b6000600160009054906101000a900473ffffffffffffffffffffffffffffffffffffffff16905090565b606060055467ffffffffffffffff811115610b6f57610b6e611452565b5b604051908082528060200260200182016040528015610b9d5781602001602082028036833780820191505090505b50905060005b600554811015610c3b576006600082815260200190815260200160002060009054906101000a900473ffffffffffffffffffffffffffffffffffffffff16828281518110610bf457610bf36121e6565b5b602002602001019073ffffffffffffffffffffffffffffffffffffffff16908173ffffffffffffffffffffffffffffffffffffffff16815250508080600101915050610ba3565b5090565b610c47610d01565b80600160006101000a81548173ffffffffffffffffffffffffffffffffffffffff021916908373ffffffffffffffffffffffffffffffffffffffff1602179055508073ffffffffffffffffffffffffffffffffffffffff16610ca76106f0565b73ffffffffffffffffffffffffffffffffffffffff167f38d16b8cac22d99fc7c124b9cd0de2d3fa1faef420bfe791d8c362d765e2270060405160405180910390a350565b6000610cf9838330610f17565b905092915050565b610d09610db9565b73ffffffffffffffffffffffffffffffffffffffff16610d276106f0565b73ffffffffffffffffffffffffffffffffffffffff1614610d8657610d4a610db9565b6040517f118cdaa7000000000000000000000000000000000000000000000000000000008152600401610d7d919061141c565b60405180910390fd5b565b600160006101000a81549073ffffffffffffffffffffffffffffffffffffffff0219169055610db681610f78565b50565b600033905090565b600080600080600085875af1905080610e0f576040517f08c379a0000000000000000000000000000000000000000000000000000000008152600401610e0690612261565b60405180910390fd5b505050565b600260035403610e50576040517f3ee5aeb500000000000000000000000000000000000000000000000000000000815260040160405180910390fd5b6002600381905550565b6000763d602d80600a3d3981f3363d3d373d3d3d363d730000008360601b60e81c176000526e5af43d82803e903d91602b57fd5bf38360781b1760205281603760096000f59050600073ffffffffffffffffffffffffffffffffffffffff168173ffffffffffffffffffffffffffffffffffffffff1603610f07576040517fc2f868f400000000000000000000000000000000000000000000000000000000815260040160405180910390fd5b92915050565b6001600381905550565b60006040518260388201526f5af43d82803e903d91602b57fd5bf3ff6024820152846014820152733d602d80600a3d3981f3363d3d373d3d3d363d7381528360588201526037600c8201206078820152605560438201209150509392505050565b60008060009054906101000a900473ffffffffffffffffffffffffffffffffffffffff169050816000806101000a81548173ffffffffffffffffffffffffffffffffffffffff021916908373ffffffffffffffffffffffffffffffffffffffff1602179055508173ffffffffffffffffffffffffffffffffffffffff168173ffffffffffffffffffffffffffffffffffffffff167f8be0079c531659141344cd1fd0a4f28419497f9722a3daafe3b4186f6b6457e060405160405180910390a35050565b604051806101e00160405280600073ffffffffffffffffffffffffffffffffffffffff168152602001600081526020016000815260200160008152602001600081526020016000815260200160008152602001600081526020016000815260200160008152602001600081526020016000151581526020016000151581526020016000151581526020016000151581525090565b6040518060800160405280600081526020016000815260200160008152602001600081525090565b6000604051905090565b600080fd5b600080fd5b600073ffffffffffffffffffffffffffffffffffffffff82169050919050565b60006111378261110c565b9050919050565b60006111498261112c565b9050919050565b6111598161113e565b811461116457600080fd5b50565b60008135905061117681611150565b92915050565b60006020828403121561119257611191611102565b5b60006111a084828501611167565b91505092915050565b6111b28161112c565b82525050565b6000819050919050565b6111cb816111b8565b82525050565b60008115159050919050565b6111e6816111d1565b82525050565b6101e08201600082015161120360008501826111a9565b50602082015161121660208501826111c2565b50604082015161122960408501826111c2565b50606082015161123c60608501826111c2565b50608082015161124f60808501826111c2565b5060a082015161126260a08501826111c2565b5060c082015161127560c08501826111c2565b5060e082015161128860e08501826111c2565b5061010082015161129d6101008501826111c2565b506101208201516112b26101208501826111c2565b506101408201516112c76101408501826111c2565b506101608201516112dc6101608501826111dd565b506101808201516112f16101808501826111dd565b506101a08201516113066101a08501826111dd565b506101c082015161131b6101c08501826111dd565b50505050565b60808201600082015161133760008501826111c2565b50602082015161134a60208501826111c2565b50604082015161135d60408501826111c2565b50606082015161137060608501826111c2565b50505050565b60006102608201905061138c60008301856111ec565b61139a6101e0830184611321565b9392505050565b6113aa8161112c565b81146113b557600080fd5b50565b6000813590506113c7816113a1565b92915050565b600080604083850312156113e4576113e3611102565b5b60006113f2858286016113b8565b9250506020611403858286016113b8565b9150509250929050565b6114168161112c565b82525050565b6000602082019050611431600083018461140d565b92915050565b600080fd5b600080fd5b6000601f19601f8301169050919050565b7f4e487b7100000000000000000000000000000000000000000000000000000000600052604160045260246000fd5b61148a82611441565b810181811067ffffffffffffffff821117156114a9576114a8611452565b5b80604052505050565b60006114bc6110f8565b90506114c88282611481565b919050565b600067ffffffffffffffff8211156114e8576114e7611452565b5b6114f182611441565b9050602081019050919050565b82818337600083830152505050565b600061152061151b846114cd565b6114b2565b90508281526020810184848401111561153c5761153b61143c565b5b6115478482856114fe565b509392505050565b600082601f83011261156457611563611437565b5b813561157484826020860161150d565b91505092915050565b60006020828403121561159357611592611102565b5b600082013567ffffffffffffffff8111156115b1576115b0611107565b5b6115bd8482850161154f565b91505092915050565b600060ff82169050919050565b6115dc816115c6565b82525050565b6000819050919050565b6115f5816115e2565b82525050565b600060608201905061161060008301866115d3565b61161d60208301856115ec565b61162a60408301846115ec565b949350505050565b600080fd5b611640816111b8565b811461164b57600080fd5b50565b60008135905061165d81611637565b92915050565b61166c816111d1565b811461167757600080fd5b50565b60008135905061168981611663565b92915050565b60006101e082840312156116a6576116a5611632565b5b6116b16101e06114b2565b905060006116c1848285016113b8565b60008301525060206116d58482850161164e565b60208301525060406116e98482850161164e565b60408301525060606116fd8482850161164e565b60608301525060806117118482850161164e565b60808301525060a06117258482850161164e565b60a08301525060c06117398482850161164e565b60c08301525060e061174d8482850161164e565b60e0830152506101006117628482850161164e565b610100830152506101206117788482850161164e565b6101208301525061014061178e8482850161164e565b610140830152506101606117a48482850161167a565b610160830152506101806117ba8482850161167a565b610180830152506101a06117d08482850161167a565b6101a0830152506101c06117e68482850161167a565b6101c08301525092915050565b600080610200838503121561180b5761180a611102565b5b60006118198582860161168f565b9250506101e083013567ffffffffffffffff81111561183b5761183a611107565b5b6118478582860161154f565b9150509250929050565b61185a816111d1565b82525050565b60006020820190506118756000830184611851565b92915050565b60006020828403121561189157611890611102565b5b600061189f8482850161164e565b91505092915050565b6000602082840312156118be576118bd611102565b5b60006118cc848285016113b8565b91505092915050565b6000608082840312156118eb576118ea611632565b5b6118f560806114b2565b905060006119058482850161164e565b60008301525060206119198482850161164e565b602083015250604061192d8482850161164e565b60408301525060606119418482850161164e565b60608301525092915050565b600080610260838503121561196557611964611102565b5b60006119738582860161168f565b9250506101e0611985858286016118d5565b9150509250929050565b600081519050919050565b600082825260208201905092915050565b6000819050602082019050919050565b60006119c783836111a9565b60208301905092915050565b6000602082019050919050565b60006119eb8261198f565b6119f5818561199a565b9350611a00836119ab565b8060005b83811015611a31578151611a1888826119bb565b9750611a23836119d3565b925050600181019050611a04565b5085935050505092915050565b60006020820190508181036000830152611a5881846119e0565b905092915050565b600081519050611a6f816113a1565b92915050565b600081519050611a8481611637565b92915050565b600081519050611a9981611663565b92915050565b60006101e08284031215611ab657611ab5611632565b5b611ac16101e06114b2565b90506000611ad184828501611a60565b6000830152506020611ae584828501611a75565b6020830152506040611af984828501611a75565b6040830152506060611b0d84828501611a75565b6060830152506080611b2184828501611a75565b60808301525060a0611b3584828501611a75565b60a08301525060c0611b4984828501611a75565b60c08301525060e0611b5d84828501611a75565b60e083015250610100611b7284828501611a75565b61010083015250610120611b8884828501611a75565b61012083015250610140611b9e84828501611a75565b61014083015250610160611bb484828501611a8a565b61016083015250610180611bca84828501611a8a565b610180830152506101a0611be084828501611a8a565b6101a0830152506101c0611bf684828501611a8a565b6101c08301525092915050565b600060808284031215611c1957611c18611632565b5b611c2360806114b2565b90506000611c3384828501611a75565b6000830152506020611c4784828501611a75565b6020830152506040611c5b84828501611a75565b6040830152506060611c6f84828501611a75565b60608301525092915050565b6000806102608385031215611c9357611c92611102565b5b6000611ca185828601611a9f565b9250506101e0611cb385828601611c03565b9150509250929050565b60008160601b9050919050565b6000611cd582611cbd565b9050919050565b6000611ce782611cca565b9050919050565b611cff611cfa8261112c565b611cdc565b82525050565b6000611d118285611cee565b601482019150611d218284611cee565b6014820191508190509392505050565b600082825260208201905092915050565b7f57726f6e67207369676e61747572650000000000000000000000000000000000600082015250565b6000611d78600f83611d31565b9150611d8382611d42565b602082019050919050565b60006020820190508181036000830152611da781611d6b565b9050919050565b600061020082019050611dc460008301856115ec565b611dd160208301846111ec565b9392505050565b600081905092915050565b7f1901000000000000000000000000000000000000000000000000000000000000600082015250565b6000611e19600283611dd8565b9150611e2482611de3565b600282019050919050565b6000819050919050565b611e4a611e45826115e2565b611e2f565b82525050565b6000611e5b82611e0c565b9150611e678285611e39565b602082019150611e778284611e39565b6020820191508190509392505050565b6000608082019050611e9c60008301876115ec565b611ea960208301866115d3565b611eb660408301856115ec565b611ec360608301846115ec565b95945050505050565b50565b6000611edc600083611d31565b9150611ee782611ecc565b600082019050919050565b60006020820190508181036000830152611f0b81611ecf565b9050919050565b7f4e6577207369676e657220616464726573732063616e6e6f742062652061207a60008201527f65726f2061646472657373000000000000000000000000000000000000000000602082015250565b6000611f6e602b83611d31565b9150611f7982611f12565b604082019050919050565b60006020820190508181036000830152611f9d81611f61565b9050919050565b600060208284031215611fba57611fb9611102565b5b6000611fc884828501611a8a565b91505092915050565b7f4572726f72000000000000000000000000000000000000000000000000000000600082015250565b6000612007600583611d31565b915061201282611fd1565b602082019050919050565b6000602082019050818103600083015261203681611ffa565b9050919050565b7f4e487b7100000000000000000000000000000000000000000000000000000000600052601160045260246000fd5b6000612077826111b8565b91507fffffffffffffffffffffffffffffffffffffffffffffffffffffffffffffffff82036120a9576120a861203d565b5b600182019050919050565b60006101e0820190506120ca60008301846111ec565b92915050565b6000602082840312156120e6576120e5611102565b5b60006120f484828501611a75565b91505092915050565b7f416d6f756e74206d7573742062652067726561746572207468616e2030000000600082015250565b6000612133601d83611d31565b915061213e826120fd565b602082019050919050565b6000602082019050818103600083015261216281612126565b9050919050565b600060808201905061217e6000830184611321565b92915050565b61218d816111b8565b82525050565b600060a0820190506121a8600083018861140d565b6121b5602083018761140d565b6121c26040830186612184565b6121cf6060830185612184565b6121dc6080830184612184565b9695505050505050565b7f4e487b7100000000000000000000000000000000000000000000000000000000600052603260045260246000fd5b7f4554485f5452414e534645525f4641494c454400000000000000000000000000600082015250565b600061224b601383611d31565b915061225682612215565b602082019050919050565b6000602082019050818103600083015261227a8161223e565b905091905056fea264697066735822122014dd7d21f65d54c575ea275fb5508e12e80cc0d5de0de8e43af71a71dae662d364736f6c63430008180033",
  "linkReferences": {},
  "deployedLinkReferences": {}
}