{
  "_format": "hh-sol-artifact-1",
  "contractName": "APCampaign",
  "sourceName": "contracts/Campaign/APCampaign.sol",
  "abi": [
    {
      "inputs": [
        {
          "internalType": "address",
          "name": "initialOwner",
          "type": "address"
        },
        {
          "components": [
            {
              "internalType": "address",
              "name": "tokenAddress",
              "type": "address"
            },
            {
              "internalType": "uint256",
              "name": "presaleRate",
              "type": "uint256"
            },
            {
              "internalType": "uint256",
              "name": "targetSaleAmount",
              "type": "uint256"
            },
            {
              "internalType": "uint256",
              "name": "minBuy",
              "type": "uint256"
            },
            {
              "internalType": "uint256",
              "name": "maxBuy",
              "type": "uint256"
            },
            {
              "internalType": "bool",
              "name": "isRefundable",
              "type": "bool"
            },
            {
              "internalType": "uint256",
              "name": "saleStartTime",
              "type": "uint256"
            },
            {
              "internalType": "uint256",
              "name": "saleEndTime",
              "type": "uint256"
            }
          ],
          "internalType": "struct CampaignData",
          "name": "data",
          "type": "tuple"
        }
      ],
      "stateMutability": "nonpayable",
      "type": "constructor"
    },
    {
      "inputs": [
        {
          "internalType": "address",
          "name": "owner",
          "type": "address"
        }
      ],
      "name": "OwnableInvalidOwner",
      "type": "error"
    },
    {
      "inputs": [
        {
          "internalType": "address",
          "name": "account",
          "type": "address"
        }
      ],
      "name": "OwnableUnauthorizedAccount",
      "type": "error"
    },
    {
      "anonymous": false,
      "inputs": [
        {
          "indexed": true,
          "internalType": "address",
          "name": "investor",
          "type": "address"
        },
        {
          "indexed": false,
          "internalType": "uint256",
          "name": "amount",
          "type": "uint256"
        },
        {
          "indexed": false,
          "internalType": "uint256",
          "name": "tokenBought",
          "type": "uint256"
        }
      ],
      "name": "Invest",
      "type": "event"
    },
    {
      "anonymous": false,
      "inputs": [
        {
          "indexed": true,
          "internalType": "address",
          "name": "previousOwner",
          "type": "address"
        },
        {
          "indexed": true,
          "internalType": "address",
          "name": "newOwner",
          "type": "address"
        }
      ],
      "name": "OwnershipTransferred",
      "type": "event"
    },
    {
      "inputs": [],
      "name": "_data",
      "outputs": [
        {
          "internalType": "address",
          "name": "tokenAddress",
          "type": "address"
        },
        {
          "internalType": "uint256",
          "name": "presaleRate",
          "type": "uint256"
        },
        {
          "internalType": "uint256",
          "name": "targetSaleAmount",
          "type": "uint256"
        },
        {
          "internalType": "uint256",
          "name": "minBuy",
          "type": "uint256"
        },
        {
          "internalType": "uint256",
          "name": "maxBuy",
          "type": "uint256"
        },
        {
          "internalType": "bool",
          "name": "isRefundable",
          "type": "bool"
        },
        {
          "internalType": "uint256",
          "name": "saleStartTime",
          "type": "uint256"
        },
        {
          "internalType": "uint256",
          "name": "saleEndTime",
          "type": "uint256"
        }
      ],
      "stateMutability": "view",
      "type": "function"
    },
    {
      "inputs": [
        {
          "internalType": "uint256",
          "name": "amount",
          "type": "uint256"
        }
      ],
      "name": "invest",
      "outputs": [],
      "stateMutability": "payable",
      "type": "function"
    },
    {
      "inputs": [],
      "name": "owner",
      "outputs": [
        {
          "internalType": "address",
          "name": "",
          "type": "address"
        }
      ],
      "stateMutability": "view",
      "type": "function"
    },
    {
      "inputs": [
        {
          "internalType": "address",
          "name": "investor",
          "type": "address"
        }
      ],
      "name": "queryClaimableAmount",
      "outputs": [
        {
          "internalType": "uint256",
          "name": "",
          "type": "uint256"
        }
      ],
      "stateMutability": "view",
      "type": "function"
    },
    {
      "inputs": [],
      "name": "renounceOwnership",
      "outputs": [],
      "stateMutability": "nonpayable",
      "type": "function"
    },
    {
      "inputs": [],
      "name": "tokenContract",
      "outputs": [
        {
          "internalType": "contract APToken",
          "name": "",
          "type": "address"
        }
      ],
      "stateMutability": "view",
      "type": "function"
    },
    {
      "inputs": [
        {
          "internalType": "address",
          "name": "newOwner",
          "type": "address"
        }
      ],
      "name": "transferOwnership",
      "outputs": [],
      "stateMutability": "nonpayable",
      "type": "function"
    }
  ],
  "bytecode": "0x60806040523480156200001157600080fd5b5060405162001244380380620012448339818101604052810190620000379190620004de565b81600073ffffffffffffffffffffffffffffffffffffffff168173ffffffffffffffffffffffffffffffffffffffff1603620000ad5760006040517f1e4fbdf7000000000000000000000000000000000000000000000000000000008152600401620000a4919062000537565b60405180910390fd5b620000be81620001b560201b60201c565b5080600160008201518160000160006101000a81548173ffffffffffffffffffffffffffffffffffffffff021916908373ffffffffffffffffffffffffffffffffffffffff1602179055506020820151816001015560408201518160020155606082015181600301556080820151816004015560a08201518160050160006101000a81548160ff02191690831515021790555060c0820151816006015560e082015181600701559050508060000151600a60006101000a81548173ffffffffffffffffffffffffffffffffffffffff021916908373ffffffffffffffffffffffffffffffffffffffff160217905550505062000554565b60008060009054906101000a900473ffffffffffffffffffffffffffffffffffffffff169050816000806101000a81548173ffffffffffffffffffffffffffffffffffffffff021916908373ffffffffffffffffffffffffffffffffffffffff1602179055508173ffffffffffffffffffffffffffffffffffffffff168173ffffffffffffffffffffffffffffffffffffffff167f8be0079c531659141344cd1fd0a4f28419497f9722a3daafe3b4186f6b6457e060405160405180910390a35050565b6000604051905090565b600080fd5b600073ffffffffffffffffffffffffffffffffffffffff82169050919050565b6000620002b58262000288565b9050919050565b620002c781620002a8565b8114620002d357600080fd5b50565b600081519050620002e781620002bc565b92915050565b600080fd5b6000601f19601f8301169050919050565b7f4e487b7100000000000000000000000000000000000000000000000000000000600052604160045260246000fd5b6200033d82620002f2565b810181811067ffffffffffffffff821117156200035f576200035e62000303565b5b80604052505050565b60006200037462000279565b905062000382828262000332565b919050565b6000819050919050565b6200039c8162000387565b8114620003a857600080fd5b50565b600081519050620003bc8162000391565b92915050565b60008115159050919050565b620003d981620003c2565b8114620003e557600080fd5b50565b600081519050620003f981620003ce565b92915050565b60006101008284031215620004195762000418620002ed565b5b6200042661010062000368565b905060006200043884828501620002d6565b60008301525060206200044e84828501620003ab565b60208301525060406200046484828501620003ab565b60408301525060606200047a84828501620003ab565b60608301525060806200049084828501620003ab565b60808301525060a0620004a684828501620003e8565b60a08301525060c0620004bc84828501620003ab565b60c08301525060e0620004d284828501620003ab565b60e08301525092915050565b6000806101208385031215620004f957620004f862000283565b5b60006200050985828601620002d6565b92505060206200051c85828601620003ff565b9150509250929050565b6200053181620002a8565b82525050565b60006020820190506200054e600083018462000526565b92915050565b610ce080620005646000396000f3fe6080604052600436106100705760003560e01c8063715018a61161004e578063715018a6146100ee5780638da5cb5b14610105578063b7ba1b1e14610130578063f2fde38b1461016d57610070565b80632afcf4801461007557806355a373d61461009157806368beab3f146100bc575b600080fd5b61008f600480360381019061008a9190610700565b610196565b005b34801561009d57600080fd5b506100a661041f565b6040516100b391906107ac565b60405180910390f35b3480156100c857600080fd5b506100d1610445565b6040516100e5989796959493929190610812565b60405180910390f35b3480156100fa57600080fd5b506101036104a8565b005b34801561011157600080fd5b5061011a6104bc565b6040516101279190610890565b60405180910390f35b34801561013c57600080fd5b50610157600480360381019061015291906108d7565b6104e5565b6040516101649190610904565b60405180910390f35b34801561017957600080fd5b50610194600480360381019061018f91906108d7565b6104ec565b005b6001800154816101a6919061094e565b34036101e7576040517f08c379a00000000000000000000000000000000000000000000000000000000081526004016101de906109ed565b60405180910390fd5b6000600160000160009054906101000a900473ffffffffffffffffffffffffffffffffffffffff1690508073ffffffffffffffffffffffffffffffffffffffff1663095ea7b3308373ffffffffffffffffffffffffffffffffffffffff1663313ce5676040518163ffffffff1660e01b8152600401602060405180830381865afa158015610279573d6000803e3d6000fd5b505050506040513d601f19601f8201168201806040525081019061029d9190610a46565b600a6102a99190610ba6565b856102b4919061094e565b6040518363ffffffff1660e01b81526004016102d1929190610bf1565b6020604051808303816000875af11580156102f0573d6000803e3d6000fd5b505050506040513d601f19601f820116820180604052508101906103149190610c46565b508073ffffffffffffffffffffffffffffffffffffffff166323b872dd30338473ffffffffffffffffffffffffffffffffffffffff1663313ce5676040518163ffffffff1660e01b8152600401602060405180830381865afa15801561037e573d6000803e3d6000fd5b505050506040513d601f19601f820116820180604052508101906103a29190610a46565b600a6103ae9190610ba6565b866103b9919061094e565b6040518463ffffffff1660e01b81526004016103d793929190610c73565b6020604051808303816000875af11580156103f6573d6000803e3d6000fd5b505050506040513d601f19601f8201168201806040525081019061041a9190610c46565b505050565b600a60009054906101000a900473ffffffffffffffffffffffffffffffffffffffff1681565b60018060000160009054906101000a900473ffffffffffffffffffffffffffffffffffffffff16908060010154908060020154908060030154908060040154908060050160009054906101000a900460ff16908060060154908060070154905088565b6104b0610572565b6104ba60006105f9565b565b60008060009054906101000a900473ffffffffffffffffffffffffffffffffffffffff16905090565b6000919050565b6104f4610572565b600073ffffffffffffffffffffffffffffffffffffffff168173ffffffffffffffffffffffffffffffffffffffff16036105665760006040517f1e4fbdf700000000000000000000000000000000000000000000000000000000815260040161055d9190610890565b60405180910390fd5b61056f816105f9565b50565b61057a6106bd565b73ffffffffffffffffffffffffffffffffffffffff166105986104bc565b73ffffffffffffffffffffffffffffffffffffffff16146105f7576105bb6106bd565b6040517f118cdaa70000000000000000000000000000000000000000000000000000000081526004016105ee9190610890565b60405180910390fd5b565b60008060009054906101000a900473ffffffffffffffffffffffffffffffffffffffff169050816000806101000a81548173ffffffffffffffffffffffffffffffffffffffff021916908373ffffffffffffffffffffffffffffffffffffffff1602179055508173ffffffffffffffffffffffffffffffffffffffff168173ffffffffffffffffffffffffffffffffffffffff167f8be0079c531659141344cd1fd0a4f28419497f9722a3daafe3b4186f6b6457e060405160405180910390a35050565b600033905090565b600080fd5b6000819050919050565b6106dd816106ca565b81146106e857600080fd5b50565b6000813590506106fa816106d4565b92915050565b600060208284031215610716576107156106c5565b5b6000610724848285016106eb565b91505092915050565b600073ffffffffffffffffffffffffffffffffffffffff82169050919050565b6000819050919050565b600061077261076d6107688461072d565b61074d565b61072d565b9050919050565b600061078482610757565b9050919050565b600061079682610779565b9050919050565b6107a68161078b565b82525050565b60006020820190506107c1600083018461079d565b92915050565b60006107d28261072d565b9050919050565b6107e2816107c7565b82525050565b6107f1816106ca565b82525050565b60008115159050919050565b61080c816107f7565b82525050565b600061010082019050610828600083018b6107d9565b610835602083018a6107e8565b61084260408301896107e8565b61084f60608301886107e8565b61085c60808301876107e8565b61086960a0830186610803565b61087660c08301856107e8565b61088360e08301846107e8565b9998505050505050505050565b60006020820190506108a560008301846107d9565b92915050565b6108b4816107c7565b81146108bf57600080fd5b50565b6000813590506108d1816108ab565b92915050565b6000602082840312156108ed576108ec6106c5565b5b60006108fb848285016108c2565b91505092915050565b600060208201905061091960008301846107e8565b92915050565b7f4e487b7100000000000000000000000000000000000000000000000000000000600052601160045260246000fd5b6000610959826106ca565b9150610964836106ca565b9250828202610972816106ca565b915082820484148315176109895761098861091f565b5b5092915050565b600082825260208201905092915050565b7f676f6e646572696c656e204554482079657465726c6920646567696c00000000600082015250565b60006109d7601c83610990565b91506109e2826109a1565b602082019050919050565b60006020820190508181036000830152610a06816109ca565b9050919050565b600060ff82169050919050565b610a2381610a0d565b8114610a2e57600080fd5b50565b600081519050610a4081610a1a565b92915050565b600060208284031215610a5c57610a5b6106c5565b5b6000610a6a84828501610a31565b91505092915050565b60008160011c9050919050565b6000808291508390505b6001851115610aca57808604811115610aa657610aa561091f565b5b6001851615610ab55780820291505b8081029050610ac385610a73565b9450610a8a565b94509492505050565b600082610ae35760019050610b9f565b81610af15760009050610b9f565b8160018114610b075760028114610b1157610b40565b6001915050610b9f565b60ff841115610b2357610b2261091f565b5b8360020a915084821115610b3a57610b3961091f565b5b50610b9f565b5060208310610133831016604e8410600b8410161715610b755782820a905083811115610b7057610b6f61091f565b5b610b9f565b610b828484846001610a80565b92509050818404811115610b9957610b9861091f565b5b81810290505b9392505050565b6000610bb1826106ca565b9150610bbc83610a0d565b9250610be97fffffffffffffffffffffffffffffffffffffffffffffffffffffffffffffffff8484610ad3565b905092915050565b6000604082019050610c0660008301856107d9565b610c1360208301846107e8565b9392505050565b610c23816107f7565b8114610c2e57600080fd5b50565b600081519050610c4081610c1a565b92915050565b600060208284031215610c5c57610c5b6106c5565b5b6000610c6a84828501610c31565b91505092915050565b6000606082019050610c8860008301866107d9565b610c9560208301856107d9565b610ca260408301846107e8565b94935050505056fea2646970667358221220d8486330008111fb90bf3e34e82d5f3cc5e3c424e31a3296ad008c2fe80062dd64736f6c63430008180033",
  "linkReferences": {},
  "deployedLinkReferences": {}
}