{
  "_format": "hh-sol-artifact-1",
  "contractName": "APCampaignManager",
  "sourceName": "contracts/Campaign/APCampaignManager.sol",
  "abi": [
    {
      "inputs": [
        {
          "internalType": "address",
          "name": "initialOwner",
          "type": "address"
        }
      ],
      "stateMutability": "nonpayable",
      "type": "constructor"
    },
    {
      "inputs": [
        {
          "internalType": "address",
          "name": "owner",
          "type": "address"
        }
      ],
      "name": "OwnableInvalidOwner",
      "type": "error"
    },
    {
      "inputs": [
        {
          "internalType": "address",
          "name": "account",
          "type": "address"
        }
      ],
      "name": "OwnableUnauthorizedAccount",
      "type": "error"
    },
    {
      "anonymous": false,
      "inputs": [
        {
          "indexed": true,
          "internalType": "address",
          "name": "previousOwner",
          "type": "address"
        },
        {
          "indexed": true,
          "internalType": "address",
          "name": "newOwner",
          "type": "address"
        }
      ],
      "name": "OwnershipTransferred",
      "type": "event"
    },
    {
      "inputs": [
        {
          "internalType": "uint256",
          "name": "",
          "type": "uint256"
        }
      ],
      "name": "_campaignAddresses",
      "outputs": [
        {
          "internalType": "address",
          "name": "",
          "type": "address"
        }
      ],
      "stateMutability": "view",
      "type": "function"
    },
    {
      "inputs": [],
      "name": "_nextCampaignId",
      "outputs": [
        {
          "internalType": "uint256",
          "name": "",
          "type": "uint256"
        }
      ],
      "stateMutability": "view",
      "type": "function"
    },
    {
      "inputs": [
        {
          "components": [
            {
              "internalType": "address",
              "name": "tokenAddress",
              "type": "address"
            },
            {
              "internalType": "uint256",
              "name": "presaleRate",
              "type": "uint256"
            },
            {
              "internalType": "uint256",
              "name": "targetSaleAmount",
              "type": "uint256"
            },
            {
              "internalType": "uint256",
              "name": "minBuy",
              "type": "uint256"
            },
            {
              "internalType": "uint256",
              "name": "maxBuy",
              "type": "uint256"
            },
            {
              "internalType": "bool",
              "name": "isRefundable",
              "type": "bool"
            },
            {
              "internalType": "uint256",
              "name": "saleStartTime",
              "type": "uint256"
            },
            {
              "internalType": "uint256",
              "name": "saleEndTime",
              "type": "uint256"
            }
          ],
          "internalType": "struct CampaignData",
          "name": "newCampaignData",
          "type": "tuple"
        }
      ],
      "name": "createCampaign",
      "outputs": [],
      "stateMutability": "nonpayable",
      "type": "function"
    },
    {
      "inputs": [],
      "name": "getAllCampaignAddresses",
      "outputs": [
        {
          "internalType": "address[]",
          "name": "campaignAddresses",
          "type": "address[]"
        }
      ],
      "stateMutability": "view",
      "type": "function"
    },
    {
      "inputs": [],
      "name": "owner",
      "outputs": [
        {
          "internalType": "address",
          "name": "",
          "type": "address"
        }
      ],
      "stateMutability": "view",
      "type": "function"
    },
    {
      "inputs": [],
      "name": "renounceOwnership",
      "outputs": [],
      "stateMutability": "nonpayable",
      "type": "function"
    },
    {
      "inputs": [
        {
          "internalType": "address",
          "name": "newOwner",
          "type": "address"
        }
      ],
      "name": "transferOwnership",
      "outputs": [],
      "stateMutability": "nonpayable",
      "type": "function"
    }
  ],
  "bytecode": "0x60806040523480156200001157600080fd5b506040516200215f3803806200215f8339818101604052810190620000379190620001f4565b80600073ffffffffffffffffffffffffffffffffffffffff168173ffffffffffffffffffffffffffffffffffffffff1603620000ad5760006040517f1e4fbdf7000000000000000000000000000000000000000000000000000000008152600401620000a4919062000237565b60405180910390fd5b620000be81620000c660201b60201c565b505062000254565b60008060009054906101000a900473ffffffffffffffffffffffffffffffffffffffff169050816000806101000a81548173ffffffffffffffffffffffffffffffffffffffff021916908373ffffffffffffffffffffffffffffffffffffffff1602179055508173ffffffffffffffffffffffffffffffffffffffff168173ffffffffffffffffffffffffffffffffffffffff167f8be0079c531659141344cd1fd0a4f28419497f9722a3daafe3b4186f6b6457e060405160405180910390a35050565b600080fd5b600073ffffffffffffffffffffffffffffffffffffffff82169050919050565b6000620001bc826200018f565b9050919050565b620001ce81620001af565b8114620001da57600080fd5b50565b600081519050620001ee81620001c3565b92915050565b6000602082840312156200020d576200020c6200018a565b5b60006200021d84828501620001dd565b91505092915050565b6200023181620001af565b82525050565b60006020820190506200024e600083018462000226565b92915050565b611efb80620002646000396000f3fe60806040523480156200001157600080fd5b5060043610620000885760003560e01c80638b2fad6311620000635780638b2fad6314620000db5780638da5cb5b14620000fd578063ae021a4c146200011f578063f2fde38b14620001555762000088565b80632052933a146200008d5780632bf5b5a314620000af578063715018a614620000cf575b600080fd5b6200009762000175565b604051620000a69190620005fc565b60405180910390f35b620000cd6004803603810190620000c7919062000874565b6200017b565b005b620000d96200027f565b005b620000e562000297565b604051620000f4919062000975565b60405180910390f35b620001076200038e565b604051620001169190620009aa565b60405180910390f35b6200013d6004803603810190620001379190620009c7565b620003b7565b6040516200014c9190620009aa565b60405180910390f35b6200017360048036038101906200016d9190620009f9565b620003ea565b005b60015481565b428160c001511015620001c5576040517f08c379a0000000000000000000000000000000000000000000000000000000008152600401620001bc9062000ab2565b60405180910390fd5b6000620001d16200038e565b82604051620001e090620005d3565b620001ed92919062000ba8565b604051809103906000f0801580156200020a573d6000803e3d6000fd5b5090508060026000600154815260200190815260200160002060006101000a81548173ffffffffffffffffffffffffffffffffffffffff021916908373ffffffffffffffffffffffffffffffffffffffff16021790555060016000815480929190620002769062000c05565b91905055505050565b6200028962000477565b62000295600062000507565b565b606060015467ffffffffffffffff811115620002b857620002b76200063e565b5b604051908082528060200260200182016040528015620002e75781602001602082028036833780820191505090505b50905060005b6001548110156200038a576002600082815260200190815260200160002060009054906101000a900473ffffffffffffffffffffffffffffffffffffffff1682828151811062000342576200034162000c52565b5b602002602001019073ffffffffffffffffffffffffffffffffffffffff16908173ffffffffffffffffffffffffffffffffffffffff16815250508080600101915050620002ed565b5090565b60008060009054906101000a900473ffffffffffffffffffffffffffffffffffffffff16905090565b60026020528060005260406000206000915054906101000a900473ffffffffffffffffffffffffffffffffffffffff1681565b620003f462000477565b600073ffffffffffffffffffffffffffffffffffffffff168173ffffffffffffffffffffffffffffffffffffffff1603620004695760006040517f1e4fbdf7000000000000000000000000000000000000000000000000000000008152600401620004609190620009aa565b60405180910390fd5b620004748162000507565b50565b62000481620005cb565b73ffffffffffffffffffffffffffffffffffffffff16620004a16200038e565b73ffffffffffffffffffffffffffffffffffffffff16146200050557620004c7620005cb565b6040517f118cdaa7000000000000000000000000000000000000000000000000000000008152600401620004fc9190620009aa565b60405180910390fd5b565b60008060009054906101000a900473ffffffffffffffffffffffffffffffffffffffff169050816000806101000a81548173ffffffffffffffffffffffffffffffffffffffff021916908373ffffffffffffffffffffffffffffffffffffffff1602179055508173ffffffffffffffffffffffffffffffffffffffff168173ffffffffffffffffffffffffffffffffffffffff167f8be0079c531659141344cd1fd0a4f28419497f9722a3daafe3b4186f6b6457e060405160405180910390a35050565b600033905090565b6112448062000c8283390190565b6000819050919050565b620005f681620005e1565b82525050565b6000602082019050620006136000830184620005eb565b92915050565b6000604051905090565b600080fd5b600080fd5b6000601f19601f8301169050919050565b7f4e487b7100000000000000000000000000000000000000000000000000000000600052604160045260246000fd5b62000678826200062d565b810181811067ffffffffffffffff821117156200069a57620006996200063e565b5b80604052505050565b6000620006af62000619565b9050620006bd82826200066d565b919050565b600073ffffffffffffffffffffffffffffffffffffffff82169050919050565b6000620006ef82620006c2565b9050919050565b6200070181620006e2565b81146200070d57600080fd5b50565b6000813590506200072181620006f6565b92915050565b6200073281620005e1565b81146200073e57600080fd5b50565b600081359050620007528162000727565b92915050565b60008115159050919050565b6200076f8162000758565b81146200077b57600080fd5b50565b6000813590506200078f8162000764565b92915050565b60006101008284031215620007af57620007ae62000628565b5b620007bc610100620006a3565b90506000620007ce8482850162000710565b6000830152506020620007e48482850162000741565b6020830152506040620007fa8482850162000741565b6040830152506060620008108482850162000741565b6060830152506080620008268482850162000741565b60808301525060a06200083c848285016200077e565b60a08301525060c0620008528482850162000741565b60c08301525060e0620008688482850162000741565b60e08301525092915050565b600061010082840312156200088e576200088d62000623565b5b60006200089e8482850162000795565b91505092915050565b600081519050919050565b600082825260208201905092915050565b6000819050602082019050919050565b620008de81620006e2565b82525050565b6000620008f28383620008d3565b60208301905092915050565b6000602082019050919050565b60006200091882620008a7565b620009248185620008b2565b93506200093183620008c3565b8060005b83811015620009685781516200094c8882620008e4565b97506200095983620008fe565b92505060018101905062000935565b5085935050505092915050565b600060208201905081810360008301526200099181846200090b565b905092915050565b620009a481620006e2565b82525050565b6000602082019050620009c1600083018462000999565b92915050565b600060208284031215620009e057620009df62000623565b5b6000620009f08482850162000741565b91505092915050565b60006020828403121562000a125762000a1162000623565b5b600062000a228482850162000710565b91505092915050565b600082825260208201905092915050565b7f596f75206d757374206368686f73652061206675747572652074696d6520617360008201527f207468652063616d706169676e2073746172742074696d652e00000000000000602082015250565b600062000a9a60398362000a2b565b915062000aa78262000a3c565b604082019050919050565b6000602082019050818103600083015262000acd8162000a8b565b9050919050565b62000adf81620005e1565b82525050565b62000af08162000758565b82525050565b6101008201600082015162000b0f6000850182620008d3565b50602082015162000b24602085018262000ad4565b50604082015162000b39604085018262000ad4565b50606082015162000b4e606085018262000ad4565b50608082015162000b63608085018262000ad4565b5060a082015162000b7860a085018262000ae5565b5060c082015162000b8d60c085018262000ad4565b5060e082015162000ba260e085018262000ad4565b50505050565b60006101208201905062000bc0600083018562000999565b62000bcf602083018462000af6565b9392505050565b7f4e487b7100000000000000000000000000000000000000000000000000000000600052601160045260246000fd5b600062000c1282620005e1565b91507fffffffffffffffffffffffffffffffffffffffffffffffffffffffffffffffff820362000c475762000c4662000bd6565b5b600182019050919050565b7f4e487b7100000000000000000000000000000000000000000000000000000000600052603260045260246000fdfe60806040523480156200001157600080fd5b5060405162001244380380620012448339818101604052810190620000379190620004de565b81600073ffffffffffffffffffffffffffffffffffffffff168173ffffffffffffffffffffffffffffffffffffffff1603620000ad5760006040517f1e4fbdf7000000000000000000000000000000000000000000000000000000008152600401620000a4919062000537565b60405180910390fd5b620000be81620001b560201b60201c565b5080600160008201518160000160006101000a81548173ffffffffffffffffffffffffffffffffffffffff021916908373ffffffffffffffffffffffffffffffffffffffff1602179055506020820151816001015560408201518160020155606082015181600301556080820151816004015560a08201518160050160006101000a81548160ff02191690831515021790555060c0820151816006015560e082015181600701559050508060000151600a60006101000a81548173ffffffffffffffffffffffffffffffffffffffff021916908373ffffffffffffffffffffffffffffffffffffffff160217905550505062000554565b60008060009054906101000a900473ffffffffffffffffffffffffffffffffffffffff169050816000806101000a81548173ffffffffffffffffffffffffffffffffffffffff021916908373ffffffffffffffffffffffffffffffffffffffff1602179055508173ffffffffffffffffffffffffffffffffffffffff168173ffffffffffffffffffffffffffffffffffffffff167f8be0079c531659141344cd1fd0a4f28419497f9722a3daafe3b4186f6b6457e060405160405180910390a35050565b6000604051905090565b600080fd5b600073ffffffffffffffffffffffffffffffffffffffff82169050919050565b6000620002b58262000288565b9050919050565b620002c781620002a8565b8114620002d357600080fd5b50565b600081519050620002e781620002bc565b92915050565b600080fd5b6000601f19601f8301169050919050565b7f4e487b7100000000000000000000000000000000000000000000000000000000600052604160045260246000fd5b6200033d82620002f2565b810181811067ffffffffffffffff821117156200035f576200035e62000303565b5b80604052505050565b60006200037462000279565b905062000382828262000332565b919050565b6000819050919050565b6200039c8162000387565b8114620003a857600080fd5b50565b600081519050620003bc8162000391565b92915050565b60008115159050919050565b620003d981620003c2565b8114620003e557600080fd5b50565b600081519050620003f981620003ce565b92915050565b60006101008284031215620004195762000418620002ed565b5b6200042661010062000368565b905060006200043884828501620002d6565b60008301525060206200044e84828501620003ab565b60208301525060406200046484828501620003ab565b60408301525060606200047a84828501620003ab565b60608301525060806200049084828501620003ab565b60808301525060a0620004a684828501620003e8565b60a08301525060c0620004bc84828501620003ab565b60c08301525060e0620004d284828501620003ab565b60e08301525092915050565b6000806101208385031215620004f957620004f862000283565b5b60006200050985828601620002d6565b92505060206200051c85828601620003ff565b9150509250929050565b6200053181620002a8565b82525050565b60006020820190506200054e600083018462000526565b92915050565b610ce080620005646000396000f3fe6080604052600436106100705760003560e01c8063715018a61161004e578063715018a6146100ee5780638da5cb5b14610105578063b7ba1b1e14610130578063f2fde38b1461016d57610070565b80632afcf4801461007557806355a373d61461009157806368beab3f146100bc575b600080fd5b61008f600480360381019061008a9190610700565b610196565b005b34801561009d57600080fd5b506100a661041f565b6040516100b391906107ac565b60405180910390f35b3480156100c857600080fd5b506100d1610445565b6040516100e5989796959493929190610812565b60405180910390f35b3480156100fa57600080fd5b506101036104a8565b005b34801561011157600080fd5b5061011a6104bc565b6040516101279190610890565b60405180910390f35b34801561013c57600080fd5b50610157600480360381019061015291906108d7565b6104e5565b6040516101649190610904565b60405180910390f35b34801561017957600080fd5b50610194600480360381019061018f91906108d7565b6104ec565b005b6001800154816101a6919061094e565b34036101e7576040517f08c379a00000000000000000000000000000000000000000000000000000000081526004016101de906109ed565b60405180910390fd5b6000600160000160009054906101000a900473ffffffffffffffffffffffffffffffffffffffff1690508073ffffffffffffffffffffffffffffffffffffffff1663095ea7b3308373ffffffffffffffffffffffffffffffffffffffff1663313ce5676040518163ffffffff1660e01b8152600401602060405180830381865afa158015610279573d6000803e3d6000fd5b505050506040513d601f19601f8201168201806040525081019061029d9190610a46565b600a6102a99190610ba6565b856102b4919061094e565b6040518363ffffffff1660e01b81526004016102d1929190610bf1565b6020604051808303816000875af11580156102f0573d6000803e3d6000fd5b505050506040513d601f19601f820116820180604052508101906103149190610c46565b508073ffffffffffffffffffffffffffffffffffffffff166323b872dd30338473ffffffffffffffffffffffffffffffffffffffff1663313ce5676040518163ffffffff1660e01b8152600401602060405180830381865afa15801561037e573d6000803e3d6000fd5b505050506040513d601f19601f820116820180604052508101906103a29190610a46565b600a6103ae9190610ba6565b866103b9919061094e565b6040518463ffffffff1660e01b81526004016103d793929190610c73565b6020604051808303816000875af11580156103f6573d6000803e3d6000fd5b505050506040513d601f19601f8201168201806040525081019061041a9190610c46565b505050565b600a60009054906101000a900473ffffffffffffffffffffffffffffffffffffffff1681565b60018060000160009054906101000a900473ffffffffffffffffffffffffffffffffffffffff16908060010154908060020154908060030154908060040154908060050160009054906101000a900460ff16908060060154908060070154905088565b6104b0610572565b6104ba60006105f9565b565b60008060009054906101000a900473ffffffffffffffffffffffffffffffffffffffff16905090565b6000919050565b6104f4610572565b600073ffffffffffffffffffffffffffffffffffffffff168173ffffffffffffffffffffffffffffffffffffffff16036105665760006040517f1e4fbdf700000000000000000000000000000000000000000000000000000000815260040161055d9190610890565b60405180910390fd5b61056f816105f9565b50565b61057a6106bd565b73ffffffffffffffffffffffffffffffffffffffff166105986104bc565b73ffffffffffffffffffffffffffffffffffffffff16146105f7576105bb6106bd565b6040517f118cdaa70000000000000000000000000000000000000000000000000000000081526004016105ee9190610890565b60405180910390fd5b565b60008060009054906101000a900473ffffffffffffffffffffffffffffffffffffffff169050816000806101000a81548173ffffffffffffffffffffffffffffffffffffffff021916908373ffffffffffffffffffffffffffffffffffffffff1602179055508173ffffffffffffffffffffffffffffffffffffffff168173ffffffffffffffffffffffffffffffffffffffff167f8be0079c531659141344cd1fd0a4f28419497f9722a3daafe3b4186f6b6457e060405160405180910390a35050565b600033905090565b600080fd5b6000819050919050565b6106dd816106ca565b81146106e857600080fd5b50565b6000813590506106fa816106d4565b92915050565b600060208284031215610716576107156106c5565b5b6000610724848285016106eb565b91505092915050565b600073ffffffffffffffffffffffffffffffffffffffff82169050919050565b6000819050919050565b600061077261076d6107688461072d565b61074d565b61072d565b9050919050565b600061078482610757565b9050919050565b600061079682610779565b9050919050565b6107a68161078b565b82525050565b60006020820190506107c1600083018461079d565b92915050565b60006107d28261072d565b9050919050565b6107e2816107c7565b82525050565b6107f1816106ca565b82525050565b60008115159050919050565b61080c816107f7565b82525050565b600061010082019050610828600083018b6107d9565b610835602083018a6107e8565b61084260408301896107e8565b61084f60608301886107e8565b61085c60808301876107e8565b61086960a0830186610803565b61087660c08301856107e8565b61088360e08301846107e8565b9998505050505050505050565b60006020820190506108a560008301846107d9565b92915050565b6108b4816107c7565b81146108bf57600080fd5b50565b6000813590506108d1816108ab565b92915050565b6000602082840312156108ed576108ec6106c5565b5b60006108fb848285016108c2565b91505092915050565b600060208201905061091960008301846107e8565b92915050565b7f4e487b7100000000000000000000000000000000000000000000000000000000600052601160045260246000fd5b6000610959826106ca565b9150610964836106ca565b9250828202610972816106ca565b915082820484148315176109895761098861091f565b5b5092915050565b600082825260208201905092915050565b7f676f6e646572696c656e204554482079657465726c6920646567696c00000000600082015250565b60006109d7601c83610990565b91506109e2826109a1565b602082019050919050565b60006020820190508181036000830152610a06816109ca565b9050919050565b600060ff82169050919050565b610a2381610a0d565b8114610a2e57600080fd5b50565b600081519050610a4081610a1a565b92915050565b600060208284031215610a5c57610a5b6106c5565b5b6000610a6a84828501610a31565b91505092915050565b60008160011c9050919050565b6000808291508390505b6001851115610aca57808604811115610aa657610aa561091f565b5b6001851615610ab55780820291505b8081029050610ac385610a73565b9450610a8a565b94509492505050565b600082610ae35760019050610b9f565b81610af15760009050610b9f565b8160018114610b075760028114610b1157610b40565b6001915050610b9f565b60ff841115610b2357610b2261091f565b5b8360020a915084821115610b3a57610b3961091f565b5b50610b9f565b5060208310610133831016604e8410600b8410161715610b755782820a905083811115610b7057610b6f61091f565b5b610b9f565b610b828484846001610a80565b92509050818404811115610b9957610b9861091f565b5b81810290505b9392505050565b6000610bb1826106ca565b9150610bbc83610a0d565b9250610be97fffffffffffffffffffffffffffffffffffffffffffffffffffffffffffffffff8484610ad3565b905092915050565b6000604082019050610c0660008301856107d9565b610c1360208301846107e8565b9392505050565b610c23816107f7565b8114610c2e57600080fd5b50565b600081519050610c4081610c1a565b92915050565b600060208284031215610c5c57610c5b6106c5565b5b6000610c6a84828501610c31565b91505092915050565b6000606082019050610c8860008301866107d9565b610c9560208301856107d9565b610ca260408301846107e8565b94935050505056fea2646970667358221220d8486330008111fb90bf3e34e82d5f3cc5e3c424e31a3296ad008c2fe80062dd64736f6c63430008180033a2646970667358221220f9288245745973ba6aedc1623f7ae90b40a04658544674c488975277178d937664736f6c63430008180033",
  "linkReferences": {},
  "deployedLinkReferences": {}
}